:1000000061C0000084C0000082C0000080C0000009
:100010007EC000007CC000007AC0000078C00000F4
:1000200076C0000074C0000072C0000070C0000004
:100030006EC000009EC200006AC0000068C00000E0
:100040001DC5000064C0000082C70000B2C70000E8
:100050005EC000005CC000005AC0000058C0000034
:1000600056C0000054C0000000000008000201005B
:100070000003040700000000000000000102040863
:100080001020408001020408102001020408102002
:10009000040404040404040402020202020203032E
:1000A00003030303000000002300260029000000D2
:1000B0000000250028002B0000000000240027007D
:1000C0002A00FE0711241FBECFEFD8E0DEBFCDBF50
:1000D00011E0A0E0B1E0E4E0F1E102C005900D9292
:1000E000A033B107D9F722E0A0E3B1E001C01D922F
:1000F000A132B207E1F710E0C2E6D0E003C02197D9
:10010000FE01F8D7C136D107D1F795D2F9C778CF1C
:10011000611101C061C56130E9F362E0FBCF662384
:1001200011F061E095C560E0FDCFBFD521E00197FA
:1001300009F020E0822F089560E070E080E89FE7FA
:10014000089560E070E080E89FE7089560E070E067
:1001500080E89FEF089560E070E080E89FEF0895E9
:1001600060E070E080EC9FEF089560E070E080EC6C
:100170009FEF0895F5DF6093E7017093E8018093A6
:10018000E9019093EA01F1DF6093DB017093DC01F8
:100190008093DD019093DE01CFDF6093E3017093E4
:1001A000E4018093E5019093E601CBDF6093DF01EA
:1001B0007093E0018093E1019093E201C7DF6093C7
:1001C000EB017093EC018093ED019093EE01C3DF9E
:1001D0006093EF017093F0018093F1019093F2012D
:1001E0000895CF92DF92EF92FF92CF936B017C0143
:1001F000AC019B016091E3017091E4018091E50104
:100200009091E601B4D2C1E0882369F0A70196017C
:100210006091EB017091EC018091ED019091EE0104
:10022000A6D28111C0E08C2FCF91FF90EF90DF908C
:10023000CF9008950F931F938B019C0100271127E6
:1002400020783F770115110520483F4749F4AB015D
:10025000BC016F77772781E0452B462B472B09F4AC
:1002600080E01F910F910895E5CF4F925F926F92BA
:100270007F928F929F92AF92BF92CF92DF92EF9236
:10028000FF92CF93C0900801D0900901E0900A013D
:10029000F0900B01A70196016091FB017091FC01A8
:1002A0008091FD019091FE0162D2882341F0C092BD
:1002B000FB01D092FC01E092FD01F092FE0182E090
:1002C00034DFC82FC0901702D0901802E0901902B6
:1002D000F0901A02C701B6017CD22B013C0120919B
:1002E00014013091150140911601509117013FD230
:1002F00087FF9DC0F7FC9BC080900C0190900D0182
:10030000A0900E01B0900F0120E030E040E85FE3E4
:10031000609110017091110180911201909113016F
:10032000C1D19B01AC01C301B201A4D387FD83C03D
:1003300010921702109218021092190210921A02CB
:10034000C501B40181D26B017C018EDF811181C0B6
:10035000C701B60146DF81117CC020E030E040E8F3
:100360005FE4C701B6018AD26B017C0120E030E076
:10037000A901FDD187FF70C0C701B6019058FBD11C
:10038000CC24DD247601C61AD70AE80AF90A50916E
:100390000001409101013091020120910301CC2321
:1003A00061F0C52ED42EE32EF22E5091040140911F
:1003B00005013091060120910701852F942FA32F6D
:1003C000B22F8F3F9105A105B10529F024F08FEFE1
:1003D00090E0A0E0B0E0BC01CD0197FF03C060E079
:1003E00070E0CB0183E09BDE8FEFC816D104E104FF
:1003F000F10429F024F0C12CD12C7601CA94F7FE27
:1004000003C0C12CD12C76016C2D84E088DE6C2DCC
:1004100085E0CF91FF90EF90DF90CF90BF90AF90AD
:100420009F908F907F906F905F904F9078CE812CAF
:10043000912C540169CF8FEFC81AD80AE80AF80A3C
:10044000C0921702D0921802E0921902F0921A029A
:1004500077CFC12CD12C7601C701B6018CD16B01AD
:100460007C0195CFCF92DF92EF92FF921F93CF93B3
:10047000DF9384E090E07EDE109231011092300133
:10048000E7EFF1E088E2DF011D928A95E9F7C3EF1B
:10049000D1E0188211E01BA7809108019091090119
:1004A000A0910A01B0910B0188879987AA87BB8721
:1004B000C12CD12C7601C394C982DA82EB82FC82F2
:1004C00060E082E025DE1D831CA21DA21EA21FA2E9
:1004D0001C8E1AA719A2CD8EDE8EEF8EF8A261E0D7
:1004E00083E016DE19A31C8A19A7198ECD8ADE8A2D
:1004F000EF8AF88E61E084E00BDE198F1C8618A766
:10050000198ACD86DE86EF86F88A61E085E000DE16
:10051000198BDF91CF911F91FF90EF90DF90CF90DB
:1005200008958091F301811103C081E08093F3016C
:1005300080910F02811103C081E080930F028091AE
:100540000702811103C081E0809307028091FF01BF
:10055000811103C081E08093FF01089540E855E2D6
:1005600060E070E090E080E000C026E08EE391E083
:100570008EC41F920F920FB60F9211242F933F93A8
:100580004F935F936F937F938F939F93AF93BF939B
:10059000EF93FF9386E09FEF909385008093840014
:1005A00032D0FF91EF91BF91AF919F918F917F9149
:1005B0006F915F914F913F912F910F900FBE0F90D0
:1005C0001F90189586E09FEF90938500809384009C
:1005D000AFE6B0E08C918E7F8C93E0E8F0E0808114
:1005E0008C7F8083E1E8F0E08081877E808380815A
:1005F0008360808380818B7F80838C9181608C93EA
:10060000089581E008958091320191E0980F9093D0
:100610003201882349F021E030E030933401209307
:10062000330180933201089578941FDEF89480910D
:1006300032018150F6CFCF93DF93109220021092B7
:100640001F0266D28BDFC0911C01D0911D0119825F
:10065000188208DFF894B6DF81E028813981232BE6
:1006600009F080E080931F027894789480911F02B3
:10067000811107C056DFF89490E080E0DF91CF91C0
:10068000089581E028813981232B09F480E080934B
:1006900020029091200281E0911180E080931F025E
:1006A000B0DFE4CF5058BB27AA270ED092C183D128
:1006B00030F088D120F031F49F3F11F41EF478C15E
:1006C0000EF4E095E7FB45C1E92F94D180F3BA170A
:1006D000620773078407950718F071F49EF5C3C18C
:1006E0000EF4E0950B2EBA2FA02D0B01B90190014D
:1006F0000C01CA01A0011124FF27591B99F0593F91
:1007000050F4503E68F11A16F040A22F232F342FD8
:100710004427585FF3CF469537952795A795F04026
:100720005395C9F77EF41F16BA0B620B730B840B3B
:10073000BAF09150A1F0FF0FBB1F661F771F881FF3
:10074000C2F70EC0BA0F621F731F841F48F487954B
:1007500077956795B795F7959E3F08F0B3CF93953A
:10076000880F08F09927EE0F979587950895CDD0BB
:1007700008F481E0089546D188F09F5790F0B92F92
:100780009927B751A0F0D1F0660F771F881F991FE6
:100790001AF0BA95C9F712C0B13081F064D1B1E056
:1007A000089561C1672F782F8827B85F39F0B93F66
:1007B000CCF3869577956795B395D9F73EF49095E8
:1007C0008095709561957F4F8F4F9F4F0895E89466
:1007D00009C097FB3EF490958095709561957F4F89
:1007E0008F4F9F4F9923A9F0F92F96E9BB27939537
:1007F000F695879577956795B795F111F8CFFAF447
:10080000BB0F11F460FF1BC06F5F7F4F8F4F9F4F77
:1008100016C0882311F096E911C0772321F09EE8D5
:10082000872F762F05C0662371F096E8862F70E03B
:1008300060E02AF09A95660F771F881FDAF7880F15
:100840009695879597F90895F7D080F09F3740F4F3
:1008500091110EF009C160E070E080E89FEB08950F
:1008600026F41B16611D711D811D79C093C0A3D094
:1008700018F011F0A7D038F49BC0F6C0E92FBAD019
:10088000B0F35523C9F3E7FB621773078407950795
:10089000A8F199F3E92FFF2788232AF03197660FF3
:1008A000771F881FDAF7952F5527442332F0915090
:1008B0005040220F331F441FD2F7BB27E91BF50B13
:1008C000621B730B840BB109C1F222F4620F731F18
:1008D000841FB11D31972AF0660F771F881FBB1F39
:1008E000EFCF915050405AF041F0882332F0660F1C
:1008F000771F881F91505040C1F793954BC0869544
:10090000779567959F5FD9F7F8CF990F0008550F36
:10091000AA0BE0E8FEEF16161706E807F907C0F085
:1009200012161306E407F50798F0621B730B840B8D
:10093000950B39F40A2661F0232B242B252B21F467
:1009400008950A2609F4A140A6958FEF811D811D07
:10095000089597F99F6780E870E060E00895882324
:1009600071F4772321F09850872B762F07C06623E8
:1009700011F499270DC09051862B70E060E02AF0A9
:100980009A95660F771F881FDAF7880F96958795D7
:1009900097F908959F3F31F0915020F4879577950E
:1009A0006795B795880F911D9695879597F9089546
:1009B0009FEF80EC089500240A9416161706180677
:1009C0000906089500240A94121613061406050653
:1009D0000895092E0394000C11F4882352F0BB0FE4
:1009E00040F4BF2B11F460FF04C06F5F7F4F8F4F47
:1009F0009F4F089557FD9058440F551F59F05F3F82
:100A000071F04795880F97FB991F61F09F3F79F030
:100A100087950895121613061406551FF2CF4695B2
:100A2000F1DF08C0161617061806991FF1CF869534
:100A30007105610508940895E5DFA0F0BEE7B917D8
:100A400088F4BB279F3860F41616B11D672F782FE6
:100A50008827985FF7CF869577956795B11D939511
:100A60009639C8F30895E894BB2766277727CB010A
:100A700097F908954ADF08F48FEF08951F920F92B7
:100A80000FB60F9211242F933F938F939F93AF93A1
:100A9000BF938091360190913701A0913801B091B8
:100AA00039013091350123E0230F2D3758F5019698
:100AB000A11DB11D2093350180933601909337011C
:100AC000A0933801B093390180913A0190913B0194
:100AD000A0913C01B0913D010196A11DB11D8093F3
:100AE0003A0190933B01A0933C01B0933D01BF912B
:100AF000AF919F918F913F912F910F900FBE0F90CB
:100B00001F90189526E8230F0296A11DB11DD2CF84
:100B1000789484B5826084BD84B5816084BD85B5D8
:100B2000826085BD85B5816085BDEEE6F0E080819F
:100B300081608083E1E8F0E01082808182608083C0
:100B4000808181608083E0E8F0E080818160808343
:100B5000E1EBF0E0808184608083E0EBF0E0808175
:100B600081608083EAE7F0E0808184608083808117
:100B700082608083808181608083808180688083BF
:100B80001092C1000895833081F028F4813099F0EB
:100B90008230A9F008958730A9F08830C9F08430F8
:100BA000B1F4809180008F7D03C0809180008F77A9
:100BB00080938000089584B58F7784BD089584B5AF
:100BC0008F7DFBCF8091B0008F778093B000089528
:100BD0008091B0008F7DF9CFCF93DF9390E0FC013F
:100BE000E458FF4F249180579F4FFC018491882344
:100BF000C9F090E0880F991FFC01E854FF4FA591C0
:100C0000B491FC01E255FF4FC591D49161110DC023
:100C10009FB7F8948C91209582238C938881282308
:100C200028839FBFDF91CF910895623051F49FB721
:100C3000F8943C91822F809583238C93E8812E2B0E
:100C4000EFCF8FB7F894EC912E2B2C938FBFEACF78
:100C50001F93CF93DF93282F30E0F901E859FF4F1E
:100C60008491F901E458FF4FD491F901E057FF4F07
:100C7000C491CC23A1F0162F811185DFEC2FF0E079
:100C8000EE0FFF1FE255FF4FA591B4918FB7F89477
:100C9000EC91111108C0D095DE23DC938FBFDF915A
:100CA000CF911F910895DE2BF8CFCF93DF93282F9C
:100CB00030E0F901E859FF4F8491F901E458FF4F02
:100CC000D491F901E057FF4FC491CC2399F08111E1
:100CD0005ADFEC2FF0E0EE0FFF1FEC55FF4FA59110
:100CE000B491EC91ED2381E090E009F480E0DF9194
:100CF000CF91089580E090E0FACFFC01918D228D94
:100D0000892F90E0805C9F4F821B91098F739927F8
:100D10000895FC01918D828D981731F0828DE80F36
:100D2000F11D858D90E008958FEF9FEF0895FC01F0
:100D3000918D828D981761F0A28DAE0FBF2FB11DDE
:100D40005D968C91928D9F5F9F73928F90E0089536
:100D50008FEF9FEF0895FC01538D448D252F30E0D8
:100D6000842F90E0821B930B541710F0CF960895B8
:100D700001970895FC01A48DA80FB92FB11DA35AA6
:100D8000BF4F2C91848D90E001968F739927848FAB
:100D9000A689B7892C93A089B1898C9183708064CE
:100DA0008C93938D848D981306C00288F389E02D6F
:100DB00080818F7D80830895CF93DF93EC01888DB0
:100DC0008823B1F0AA89BB89E889F9898C9185FDCE
:100DD00003C0808186FD0CC00FB607FCF7CF8C9155
:100DE00085FFF2CF808185FFEDCFCE01C3DFEACF53
:100DF000DF91CF910895EF92FF920F931F93CF93BE
:100E0000DF93EC0181E0888F9B8D8C8D98131AC045
:100E1000E889F989808185FF15C09FB7F894EE892C
:100E2000FF896083E889F989808183708064808389
:100E30009FBF81E090E0DF91CF911F910F91FF90D4
:100E4000EF900895F62E0B8D10E00F5F1F4F0F737C
:100E50001127E02E8C8D8E110BC00FB607FCFACF38
:100E6000E889F989808185FFF5CFCE0183DFF2CF54
:100E7000EB8DEC0FFD2FF11DE35AFF4FF0829FB772
:100E8000F8940B8FEA89FB8980818062D0CFCF9262
:100E9000DF92EF92FF921F93CF93DF93EC016A01F1
:100EA0007B01122FE889F98982E08083C11481EEE9
:100EB000D806E104F10499F060E079E08DE390E078
:100EC000A7019601F5D021503109410951095695E4
:100ED000479537952795211580E1380790F0E889E7
:100EE000F989108260E874E88EE190E0A70196012C
:100EF000DFD0215031094109510956954795379561
:100F00002795EC85FD853083EE85FF852083188E3F
:100F1000EC89FD891083EA89FB8980818061808367
:100F2000EA89FB89808188608083EA89FB898081E6
:100F300080688083EA89FB8980818F7D8083DF914F
:100F4000CF911F91FF90EF90DF90CF9008951F9267
:100F50000F920FB60F9211242F938F939F93EF93BD
:100F6000FF93E0914E01F0914F018081E091540197
:100F7000F091550182FD1BC09081809157018F5FD8
:100F80008F7320915801821741F0E0915701F0E0F2
:100F9000E25CFE4F958F80935701FF91EF919F91F7
:100FA0008F912F910F900FBE0F901F9018958081F9
:100FB000F4CF1F920F920FB60F9211242F933F93ED
:100FC0004F935F936F937F938F939F93AF93BF9351
:100FD000EF93FF938EE391E0CDDEFF91EF91BF9110
:100FE000AF919F918F917F916F915F914F913F91C1
:100FF0002F910F900FBE0F901F901895EEE3F1E028
:101000001382128288EE93E0A0E0B0E0848395839F
:10101000A683B78382E291E09183808385EC90E0A0
:101020009587848784EC90E09787868780EC90E0B2
:10103000918B808B81EC90E0938B828B82EC90E0A3
:10104000958B848B86EC90E0978B868B118E128E1D
:10105000138E148E0895AF92BF92CF92DF92EF92CB
:10106000FF920F931F93CF93DF936C017B018B0152
:10107000040F151FEB015E01AE18BF08C017D107A2
:1010800059F06991D601ED91FC910190F081E02D2C
:10109000C6010995892B79F7C501DF91CF911F9181
:1010A0000F91FF90EF90DF90CF90BF90AF90089599
:1010B000A1E21A2EAA1BBB1BFD010DC0AA1FBB1F5C
:1010C000EE1FFF1FA217B307E407F50720F0A21BCE
:1010D000B30BE40BF50B661F771F881F991F1A943B
:1010E00069F760957095809590959B01AC01BD0165
:1010F000CF010895EE0FFF1F0590F491E02D0994A4
:04110000F894FFCF91
:101104000000000001000000000080BF0000803FDC
:101114000080BB4500803B4500000000300100001A
:101124000000FB062B08AB06DC067D069706890645
:00000001FF
